{
  "_format": "hh-sol-artifact-1",
  "contractName": "NFTFactory",
  "sourceName": "contracts/NFTFactory.sol",
  "abi": [
    {
      "anonymous": false,
      "inputs": [
        {
          "indexed": false,
          "internalType": "address",
          "name": "contractAddress",
          "type": "address"
        },
        {
          "indexed": false,
          "internalType": "string",
          "name": "name",
          "type": "string"
        },
        {
          "indexed": false,
          "internalType": "string",
          "name": "symbol",
          "type": "string"
        },
        {
          "indexed": false,
          "internalType": "address",
          "name": "owner",
          "type": "address"
        }
      ],
      "name": "NFTContractCreated",
      "type": "event"
    },
    {
      "inputs": [
        {
          "internalType": "address",
          "name": "",
          "type": "address"
        },
        {
          "internalType": "uint256",
          "name": "",
          "type": "uint256"
        }
      ],
      "name": "contractsByOwner",
      "outputs": [
        {
          "internalType": "address",
          "name": "",
          "type": "address"
        }
      ],
      "stateMutability": "view",
      "type": "function"
    },
    {
      "inputs": [
        {
          "internalType": "string",
          "name": "name",
          "type": "string"
        },
        {
          "internalType": "string",
          "name": "symbol",
          "type": "string"
        }
      ],
      "name": "createNFTContract",
      "outputs": [
        {
          "internalType": "address",
          "name": "",
          "type": "address"
        }
      ],
      "stateMutability": "nonpayable",
      "type": "function"
    },
    {
      "inputs": [
        {
          "internalType": "uint256",
          "name": "",
          "type": "uint256"
        }
      ],
      "name": "deployedContracts",
      "outputs": [
        {
          "internalType": "address",
          "name": "",
          "type": "address"
        }
      ],
      "stateMutability": "view",
      "type": "function"
    },
    {
      "inputs": [
        {
          "internalType": "address",
          "name": "owner",
          "type": "address"
        }
      ],
      "name": "getContractsByOwner",
      "outputs": [
        {
          "internalType": "address[]",
          "name": "",
          "type": "address[]"
        }
      ],
      "stateMutability": "view",
      "type": "function"
    },
    {
      "inputs": [
        {
          "internalType": "address",
          "name": "owner",
          "type": "address"
        }
      ],
      "name": "getContractsCountByOwner",
      "outputs": [
        {
          "internalType": "uint256",
          "name": "",
          "type": "uint256"
        }
      ],
      "stateMutability": "view",
      "type": "function"
    },
    {
      "inputs": [],
      "name": "getDeployedContracts",
      "outputs": [
        {
          "internalType": "address[]",
          "name": "",
          "type": "address[]"
        }
      ],
      "stateMutability": "view",
      "type": "function"
    },
    {
      "inputs": [],
      "name": "getDeployedContractsCount",
      "outputs": [
        {
          "internalType": "uint256",
          "name": "",
          "type": "uint256"
        }
      ],
      "stateMutability": "view",
      "type": "function"
    }
  ],
  "bytecode": "0x6080604052348015600f57600080fd5b50611e408061001f6000396000f3fe608060405234801561001057600080fd5b506004361061007d5760003560e01c8063674fba4f1161005b578063674fba4f146100e45780639ad1ee101461010d578063a19d5ac914610120578063aa9a068f1461013357600080fd5b806314d76ffc146100825780631cea013a146100b25780635fc7f334146100d2575b600080fd5b61009561009036600461041d565b61013b565b6040516001600160a01b0390911681526020015b60405180910390f35b6100c56100c03660046104a2565b610231565b6040516100a991906104c4565b6000545b6040519081526020016100a9565b6100d66100f23660046104a2565b6001600160a01b031660009081526001602052604090205490565b61009561011b366004610510565b6102a7565b61009561012e366004610529565b6102d1565b6100c5610309565b60008083833360405161014d9061036b565b61015993929190610599565b604051809103906000f080158015610175573d6000803e3d6000fd5b5060008054600181810183557f290decd9548b62a8d60345a988386fc84ba6bc95484008f6362f93160ef3e56390910180546001600160a01b0385166001600160a01b031991821681179092553380855260208481526040808720805496870181558752952090930180549091169091179055905191925082917f580cfa47423e476ea9ca65ff917aaded66bc9b0257ff4265fad1b510762f09e99161022191849189918991906105d7565b60405180910390a1949350505050565b6001600160a01b03811660009081526001602090815260409182902080548351818402810184019094528084526060939283018282801561029b57602002820191906000526020600020905b81546001600160a01b0316815260019091019060200180831161027d575b50505050509050919050565b600081815481106102b757600080fd5b6000918252602090912001546001600160a01b0316905081565b600160205281600052604060002081815481106102ed57600080fd5b6000918252602090912001546001600160a01b03169150829050565b6060600080548060200260200160405190810160405280929190818152602001828054801561036157602002820191906000526020600020905b81546001600160a01b03168152600190910190602001808311610343575b5050505050905090565b6117e38061062883390190565b634e487b7160e01b600052604160045260246000fd5b600082601f83011261039f57600080fd5b813567ffffffffffffffff8111156103b9576103b9610378565b604051601f8201601f19908116603f0116810167ffffffffffffffff811182821017156103e8576103e8610378565b60405281815283820160200185101561040057600080fd5b816020850160208301376000918101602001919091529392505050565b6000806040838503121561043057600080fd5b823567ffffffffffffffff81111561044757600080fd5b6104538582860161038e565b925050602083013567ffffffffffffffff81111561047057600080fd5b61047c8582860161038e565b9150509250929050565b80356001600160a01b038116811461049d57600080fd5b919050565b6000602082840312156104b457600080fd5b6104bd82610486565b9392505050565b602080825282518282018190526000918401906040840190835b818110156105055783516001600160a01b03168352602093840193909201916001016104de565b509095945050505050565b60006020828403121561052257600080fd5b5035919050565b6000806040838503121561053c57600080fd5b61054583610486565b946020939093013593505050565b6000815180845260005b818110156105795760208185018101518683018201520161055d565b506000602082860101526020601f19601f83011685010191505092915050565b6060815260006105ac6060830186610553565b82810360208401526105be8186610553565b91505060018060a01b0383166040830152949350505050565b6001600160a01b03851681526080602082018190526000906105fb90830186610553565b828103604084015261060d8186610553565b91505060018060a01b03831660608301529594505050505056fe608060405234801561001057600080fd5b506040516117e33803806117e383398101604081905261002f9161019f565b808383600061003e83826102b3565b50600161004b82826102b3565b5050506001600160a01b03811661007c57604051631e4fbdf760e01b81526000600482015260240160405180910390fd5b61008581610094565b50506001600855506103719050565b600780546001600160a01b038381166001600160a01b0319831681179093556040519116919082907f8be0079c531659141344cd1fd0a4f28419497f9722a3daafe3b4186f6b6457e090600090a35050565b634e487b7160e01b600052604160045260246000fd5b600082601f83011261010d57600080fd5b81516001600160401b03811115610126576101266100e6565b604051601f8201601f19908116603f011681016001600160401b0381118282101715610154576101546100e6565b60405281815283820160200185101561016c57600080fd5b60005b8281101561018b5760208186018101518383018201520161016f565b506000918101602001919091529392505050565b6000806000606084860312156101b457600080fd5b83516001600160401b038111156101ca57600080fd5b6101d6868287016100fc565b602086015190945090506001600160401b038111156101f457600080fd5b610200868287016100fc565b604086015190935090506001600160a01b038116811461021f57600080fd5b809150509250925092565b600181811c9082168061023e57607f821691505b60208210810361025e57634e487b7160e01b600052602260045260246000fd5b50919050565b601f8211156102ae57806000526020600020601f840160051c8101602085101561028b5750805b601f840160051c820191505b818110156102ab5760008155600101610297565b50505b505050565b81516001600160401b038111156102cc576102cc6100e6565b6102e0816102da845461022a565b84610264565b6020601f82116001811461031457600083156102fc5750848201515b600019600385901b1c1916600184901b1784556102ab565b600084815260208120601f198516915b828110156103445787850151825560209485019460019092019101610324565b50848210156103625786840151600019600387901b60f8161c191681555b50505050600190811b01905550565b611463806103806000396000f3fe608060405234801561001057600080fd5b50600436106101165760003560e01c8063715018a6116100a2578063b88d4fde11610071578063b88d4fde1461022e578063c87b56dd14610241578063d0def52114610254578063e985e9c514610267578063f2fde38b1461027a57600080fd5b8063715018a6146101fa5780638da5cb5b1461020257806395d89b4114610213578063a22cb4651461021b57600080fd5b806323b872dd116100e957806323b872dd1461019857806342842e0e146101ab57806356189236146101be5780636352211e146101d457806370a08231146101e757600080fd5b806301ffc9a71461011b57806306fdde0314610143578063081812fc14610158578063095ea7b314610183575b600080fd5b61012e610129366004610f2f565b61028d565b60405190151581526020015b60405180910390f35b61014b61029e565b60405161013a9190610f9c565b61016b610166366004610faf565b610330565b6040516001600160a01b03909116815260200161013a565b610196610191366004610fe4565b610359565b005b6101966101a636600461100e565b610368565b6101966101b936600461100e565b6103f8565b6101c6610418565b60405190815260200161013a565b61016b6101e2366004610faf565b610429565b6101c66101f536600461104b565b610434565b61019661047c565b6007546001600160a01b031661016b565b61014b610490565b610196610229366004611066565b61049f565b61019661023c366004611132565b6104aa565b61014b61024f366004610faf565b6104c2565b6101c66102623660046111ae565b6104cd565b61012e610275366004611210565b61050c565b61019661028836600461104b565b61053a565b600061029882610578565b92915050565b6060600080546102ad90611243565b80601f01602080910402602001604051908101604052809291908181526020018280546102d990611243565b80156103265780601f106102fb57610100808354040283529160200191610326565b820191906000526020600020905b81548152906001019060200180831161030957829003601f168201915b5050505050905090565b600061033b8261059d565b506000828152600460205260409020546001600160a01b0316610298565b6103648282336105d6565b5050565b6001600160a01b03821661039757604051633250574960e11b8152600060048201526024015b60405180910390fd5b60006103a48383336105e3565b9050836001600160a01b0316816001600160a01b0316146103f2576040516364283d7b60e01b81526001600160a01b038086166004830152602482018490528216604482015260640161038e565b50505050565b610413838383604051806020016040528060008152506104aa565b505050565b60006104226106dc565b5060085490565b60006102988261059d565b60006001600160a01b038216610460576040516322718ad960e21b81526000600482015260240161038e565b506001600160a01b031660009081526003602052604090205490565b6104846106dc565b61048e6000610709565b565b6060600180546102ad90611243565b61036433838361075b565b6104b5848484610368565b6103f233858585856107fa565b606061029882610925565b60006104d76106dc565b600880549060019060006104eb838561127d565b909155506104fb90508482610a36565b6105058184610a50565b9392505050565b6001600160a01b03918216600090815260056020908152604080832093909416825291909152205460ff1690565b6105426106dc565b6001600160a01b03811661056c57604051631e4fbdf760e01b81526000600482015260240161038e565b61057581610709565b50565b60006001600160e01b03198216632483248360e11b1480610298575061029882610aa0565b6000818152600260205260408120546001600160a01b03168061029857604051637e27328960e01b81526004810184905260240161038e565b6104138383836001610af0565b6000828152600260205260408120546001600160a01b039081169083161561061057610610818486610bf6565b6001600160a01b0381161561064e5761062d600085600080610af0565b6001600160a01b038116600090815260036020526040902080546000190190555b6001600160a01b0385161561067d576001600160a01b0385166000908152600360205260409020805460010190555b60008481526002602052604080822080546001600160a01b0319166001600160a01b0389811691821790925591518793918516917fddf252ad1be2c89b69c2b068fc378daa952ba7f163c4a11628f55a4df523b3ef91a4949350505050565b6007546001600160a01b0316331461048e5760405163118cdaa760e01b815233600482015260240161038e565b600780546001600160a01b038381166001600160a01b0319831681179093556040519116919082907f8be0079c531659141344cd1fd0a4f28419497f9722a3daafe3b4186f6b6457e090600090a35050565b6001600160a01b03821661078d57604051630b61174360e31b81526001600160a01b038316600482015260240161038e565b6001600160a01b03838116600081815260056020908152604080832094871680845294825291829020805460ff191686151590811790915591519182527f17307eab39ab6107e8899845ad3d59bd9653f200f220920489ca2b5937696c31910160405180910390a3505050565b6001600160a01b0383163b1561091e57604051630a85bd0160e11b81526001600160a01b0384169063150b7a029061083c90889088908790879060040161129e565b6020604051808303816000875af1925050508015610877575060408051601f3d908101601f19168201909252610874918101906112db565b60015b6108e0573d8080156108a5576040519150601f19603f3d011682016040523d82523d6000602084013e6108aa565b606091505b5080516000036108d857604051633250574960e11b81526001600160a01b038516600482015260240161038e565b805181602001fd5b6001600160e01b03198116630a85bd0160e11b1461091c57604051633250574960e11b81526001600160a01b038516600482015260240161038e565b505b5050505050565b60606109308261059d565b506000828152600660205260408120805461094a90611243565b80601f016020809104026020016040519081016040528092919081815260200182805461097690611243565b80156109c35780601f10610998576101008083540402835291602001916109c3565b820191906000526020600020905b8154815290600101906020018083116109a657829003601f168201915b5050505050905060006109e160408051602081019091526000815290565b905080516000036109f3575092915050565b815115610a25578082604051602001610a0d9291906112f8565b60405160208183030381529060405292505050919050565b610a2e84610c5a565b949350505050565b610364828260405180602001604052806000815250610cce565b6000828152600660205260409020610a68828261136e565b506040518281527ff8e1a15aba9398e019f0b49df1a4fde98ee17ae345cb5f6b5e2c27f5033e8ce79060200160405180910390a15050565b60006001600160e01b031982166380ac58cd60e01b1480610ad157506001600160e01b03198216635b5e139f60e01b145b8061029857506301ffc9a760e01b6001600160e01b0319831614610298565b8080610b0457506001600160a01b03821615155b15610bc6576000610b148461059d565b90506001600160a01b03831615801590610b405750826001600160a01b0316816001600160a01b031614155b8015610b535750610b51818461050c565b155b15610b7c5760405163a9fbf51f60e01b81526001600160a01b038416600482015260240161038e565b8115610bc45783856001600160a01b0316826001600160a01b03167f8c5be1e5ebec7d5bd14f71427d1e84f3dd0314c0f7b2291e5b200ac8c7c3b92560405160405180910390a45b505b5050600090815260046020526040902080546001600160a01b0319166001600160a01b0392909216919091179055565b610c01838383610ce6565b610413576001600160a01b038316610c2f57604051637e27328960e01b81526004810182905260240161038e565b60405163177e802f60e01b81526001600160a01b03831660048201526024810182905260440161038e565b6060610c658261059d565b506000610c7d60408051602081019091526000815290565b90506000815111610c9d5760405180602001604052806000815250610505565b80610ca784610d49565b604051602001610cb89291906112f8565b6040516020818303038152906040529392505050565b610cd88383610ddc565b6104133360008585856107fa565b60006001600160a01b03831615801590610a2e5750826001600160a01b0316846001600160a01b03161480610d205750610d20848461050c565b80610a2e5750506000908152600460205260409020546001600160a01b03908116911614919050565b60606000610d5683610e41565b600101905060008167ffffffffffffffff811115610d7657610d766110a2565b6040519080825280601f01601f191660200182016040528015610da0576020820181803683370190505b5090508181016020015b600019016f181899199a1a9b1b9c1cb0b131b232b360811b600a86061a8153600a8504945084610daa57509392505050565b6001600160a01b038216610e0657604051633250574960e11b81526000600482015260240161038e565b6000610e14838360006105e3565b90506001600160a01b03811615610413576040516339e3563760e11b81526000600482015260240161038e565b60008072184f03e93ff9f4daa797ed6e38ed64bf6a1f0160401b8310610e805772184f03e93ff9f4daa797ed6e38ed64bf6a1f0160401b830492506040015b6d04ee2d6d415b85acef81000000008310610eac576d04ee2d6d415b85acef8100000000830492506020015b662386f26fc100008310610eca57662386f26fc10000830492506010015b6305f5e1008310610ee2576305f5e100830492506008015b6127108310610ef657612710830492506004015b60648310610f08576064830492506002015b600a83106102985760010192915050565b6001600160e01b03198116811461057557600080fd5b600060208284031215610f4157600080fd5b813561050581610f19565b60005b83811015610f67578181015183820152602001610f4f565b50506000910152565b60008151808452610f88816020860160208601610f4c565b601f01601f19169290920160200192915050565b6020815260006105056020830184610f70565b600060208284031215610fc157600080fd5b5035919050565b80356001600160a01b0381168114610fdf57600080fd5b919050565b60008060408385031215610ff757600080fd5b61100083610fc8565b946020939093013593505050565b60008060006060848603121561102357600080fd5b61102c84610fc8565b925061103a60208501610fc8565b929592945050506040919091013590565b60006020828403121561105d57600080fd5b61050582610fc8565b6000806040838503121561107957600080fd5b61108283610fc8565b91506020830135801515811461109757600080fd5b809150509250929050565b634e487b7160e01b600052604160045260246000fd5b60008067ffffffffffffffff8411156110d3576110d36110a2565b50604051601f19601f85018116603f0116810181811067ffffffffffffffff82111715611102576111026110a2565b60405283815290508082840185101561111a57600080fd5b83836020830137600060208583010152509392505050565b6000806000806080858703121561114857600080fd5b61115185610fc8565b935061115f60208601610fc8565b925060408501359150606085013567ffffffffffffffff81111561118257600080fd5b8501601f8101871361119357600080fd5b6111a2878235602084016110b8565b91505092959194509250565b600080604083850312156111c157600080fd5b6111ca83610fc8565b9150602083013567ffffffffffffffff8111156111e657600080fd5b8301601f810185136111f757600080fd5b611206858235602084016110b8565b9150509250929050565b6000806040838503121561122357600080fd5b61122c83610fc8565b915061123a60208401610fc8565b90509250929050565b600181811c9082168061125757607f821691505b60208210810361127757634e487b7160e01b600052602260045260246000fd5b50919050565b8082018082111561029857634e487b7160e01b600052601160045260246000fd5b6001600160a01b03858116825284166020820152604081018390526080606082018190526000906112d190830184610f70565b9695505050505050565b6000602082840312156112ed57600080fd5b815161050581610f19565b6000835161130a818460208801610f4c565b83519083019061131e818360208801610f4c565b01949350505050565b601f82111561041357806000526020600020601f840160051c8101602085101561134e5750805b601f840160051c820191505b8181101561091e576000815560010161135a565b815167ffffffffffffffff811115611388576113886110a2565b61139c816113968454611243565b84611327565b6020601f8211600181146113d057600083156113b85750848201515b600019600385901b1c1916600184901b17845561091e565b600084815260208120601f198516915b8281101561140057878501518255602094850194600190920191016113e0565b508482101561141e5786840151600019600387901b60f8161c191681555b50505050600190811b0190555056fea26469706673582212205e3d53193bd42300cee570d9d7126bfb93125bc59747321dcd31e02fba7e09b364736f6c634300081c0033a2646970667358221220c37d684708ffcefa7206a8714f435031309d35473c88b8d3acfcea67be77b65064736f6c634300081c0033",
  "linkReferences": {},
  "deployedLinkReferences": {}
}