{
  "_format": "hh-sol-artifact-1",
  "contractName": "NFTFactory",
  "sourceName": "contracts/NFTFactory.sol",
  "abi": [
    {
      "anonymous": false,
      "inputs": [
        {
          "indexed": false,
          "internalType": "address",
          "name": "contractAddress",
          "type": "address"
        },
        {
          "indexed": false,
          "internalType": "string",
          "name": "name",
          "type": "string"
        },
        {
          "indexed": false,
          "internalType": "string",
          "name": "symbol",
          "type": "string"
        },
        {
          "indexed": false,
          "internalType": "address",
          "name": "owner",
          "type": "address"
        },
        {
          "indexed": false,
          "internalType": "string",
          "name": "collectionCID",
          "type": "string"
        }
      ],
      "name": "NFTContractCreated",
      "type": "event"
    },
    {
      "inputs": [
        {
          "internalType": "address",
          "name": "",
          "type": "address"
        },
        {
          "internalType": "uint256",
          "name": "",
          "type": "uint256"
        }
      ],
      "name": "contractsByOwner",
      "outputs": [
        {
          "internalType": "address",
          "name": "",
          "type": "address"
        }
      ],
      "stateMutability": "view",
      "type": "function"
    },
    {
      "inputs": [
        {
          "internalType": "string",
          "name": "name",
          "type": "string"
        },
        {
          "internalType": "string",
          "name": "symbol",
          "type": "string"
        },
        {
          "internalType": "string",
          "name": "collectionCID",
          "type": "string"
        }
      ],
      "name": "createNFTContract",
      "outputs": [
        {
          "internalType": "address",
          "name": "",
          "type": "address"
        }
      ],
      "stateMutability": "nonpayable",
      "type": "function"
    },
    {
      "inputs": [
        {
          "internalType": "uint256",
          "name": "",
          "type": "uint256"
        }
      ],
      "name": "deployedContracts",
      "outputs": [
        {
          "internalType": "address",
          "name": "",
          "type": "address"
        }
      ],
      "stateMutability": "view",
      "type": "function"
    },
    {
      "inputs": [
        {
          "internalType": "address",
          "name": "owner",
          "type": "address"
        }
      ],
      "name": "getContractsByOwner",
      "outputs": [
        {
          "internalType": "address[]",
          "name": "",
          "type": "address[]"
        }
      ],
      "stateMutability": "view",
      "type": "function"
    },
    {
      "inputs": [
        {
          "internalType": "address",
          "name": "owner",
          "type": "address"
        }
      ],
      "name": "getContractsCountByOwner",
      "outputs": [
        {
          "internalType": "uint256",
          "name": "",
          "type": "uint256"
        }
      ],
      "stateMutability": "view",
      "type": "function"
    },
    {
      "inputs": [],
      "name": "getDeployedContracts",
      "outputs": [
        {
          "internalType": "address[]",
          "name": "",
          "type": "address[]"
        }
      ],
      "stateMutability": "view",
      "type": "function"
    },
    {
      "inputs": [],
      "name": "getDeployedContractsCount",
      "outputs": [
        {
          "internalType": "uint256",
          "name": "",
          "type": "uint256"
        }
      ],
      "stateMutability": "view",
      "type": "function"
    }
  ],
  "bytecode": "0x6080604052348015600f57600080fd5b50611f868061001f6000396000f3fe608060405234801561001057600080fd5b506004361061007d5760003560e01c8063674fba4f1161005b578063674fba4f146100e45780639ad1ee101461010d578063a19d5ac914610120578063aa9a068f1461013357600080fd5b80631271acd3146100825780631cea013a146100b25780635fc7f334146100d2575b600080fd5b610095610090366004610422565b61013b565b6040516001600160a01b0390911681526020015b60405180910390f35b6100c56100c03660046104d2565b610236565b6040516100a991906104f4565b6000545b6040519081526020016100a9565b6100d66100f23660046104d2565b6001600160a01b031660009081526001602052604090205490565b61009561011b366004610540565b6102ac565b61009561012e366004610559565b6102d6565b6100c561030e565b6000808484338560405161014e90610370565b61015b94939291906105c9565b604051809103906000f080158015610177573d6000803e3d6000fd5b5060008054600181810183557f290decd9548b62a8d60345a988386fc84ba6bc95484008f6362f93160ef3e56390910180546001600160a01b0385166001600160a01b031991821681179092553380855260208481526040808720805496870181558752952090930180549091169091179055905191925082917f4f97bd9b10ca75c0e4659b41931894b7ad0099a3f370fc417d1e0774ba9f6463916102259184918a918a91908a9061061c565b60405180910390a195945050505050565b6001600160a01b0381166000908152600160209081526040918290208054835181840281018401909452808452606093928301828280156102a057602002820191906000526020600020905b81546001600160a01b03168152600190910190602001808311610282575b50505050509050919050565b600081815481106102bc57600080fd5b6000918252602090912001546001600160a01b0316905081565b600160205281600052604060002081815481106102f257600080fd5b6000918252602090912001546001600160a01b03169150829050565b6060600080548060200260200160405190810160405280929190818152602001828054801561036657602002820191906000526020600020905b81546001600160a01b03168152600190910190602001808311610348575b5050505050905090565b6118cf8061068283390190565b634e487b7160e01b600052604160045260246000fd5b600082601f8301126103a457600080fd5b813567ffffffffffffffff8111156103be576103be61037d565b604051601f8201601f19908116603f0116810167ffffffffffffffff811182821017156103ed576103ed61037d565b60405281815283820160200185101561040557600080fd5b816020850160208301376000918101602001919091529392505050565b60008060006060848603121561043757600080fd5b833567ffffffffffffffff81111561044e57600080fd5b61045a86828701610393565b935050602084013567ffffffffffffffff81111561047757600080fd5b61048386828701610393565b925050604084013567ffffffffffffffff8111156104a057600080fd5b6104ac86828701610393565b9150509250925092565b80356001600160a01b03811681146104cd57600080fd5b919050565b6000602082840312156104e457600080fd5b6104ed826104b6565b9392505050565b602080825282518282018190526000918401906040840190835b818110156105355783516001600160a01b031683526020938401939092019160010161050e565b509095945050505050565b60006020828403121561055257600080fd5b5035919050565b6000806040838503121561056c57600080fd5b610575836104b6565b946020939093013593505050565b6000815180845260005b818110156105a95760208185018101518683018201520161058d565b506000602082860101526020601f19601f83011685010191505092915050565b6080815260006105dc6080830187610583565b82810360208401526105ee8187610583565b6001600160a01b0386166040850152838103606085015290506106118185610583565b979650505050505050565b6001600160a01b038616815260a06020820181905260009061064090830187610583565b82810360408401526106528187610583565b6001600160a01b0386166060850152838103608085015290506106758185610583565b9897505050505050505056fe608060405234801561001057600080fd5b506040516118cf3803806118cf83398101604081905261002f916101ac565b818484600061003e83826102ea565b50600161004b82826102ea565b5050506001600160a01b03811661007c57604051631e4fbdf760e01b81526000600482015260240160405180910390fd5b610085816100a1565b506001600855600961009782826102ea565b50505050506103a8565b600780546001600160a01b038381166001600160a01b0319831681179093556040519116919082907f8be0079c531659141344cd1fd0a4f28419497f9722a3daafe3b4186f6b6457e090600090a35050565b634e487b7160e01b600052604160045260246000fd5b600082601f83011261011a57600080fd5b81516001600160401b03811115610133576101336100f3565b604051601f8201601f19908116603f011681016001600160401b0381118282101715610161576101616100f3565b60405281815283820160200185101561017957600080fd5b60005b828110156101985760208186018101518383018201520161017c565b506000918101602001919091529392505050565b600080600080608085870312156101c257600080fd5b84516001600160401b038111156101d857600080fd5b6101e487828801610109565b602087015190955090506001600160401b0381111561020257600080fd5b61020e87828801610109565b604087015190945090506001600160a01b038116811461022d57600080fd5b60608601519092506001600160401b0381111561024957600080fd5b61025587828801610109565b91505092959194509250565b600181811c9082168061027557607f821691505b60208210810361029557634e487b7160e01b600052602260045260246000fd5b50919050565b601f8211156102e557806000526020600020601f840160051c810160208510156102c25750805b601f840160051c820191505b818110156102e257600081556001016102ce565b50505b505050565b81516001600160401b03811115610303576103036100f3565b610317816103118454610261565b8461029b565b6020601f82116001811461034b57600083156103335750848201515b600019600385901b1c1916600184901b1784556102e2565b600084815260208120601f198516915b8281101561037b578785015182556020948501946001909201910161035b565b50848210156103995786840151600019600387901b60f8161c191681555b50505050600190811b01905550565b611518806103b76000396000f3fe608060405234801561001057600080fd5b506004361061012c5760003560e01c8063715018a6116100ad578063b88d4fde11610071578063b88d4fde1461025f578063c87b56dd14610272578063d0def52114610285578063e985e9c514610298578063f2fde38b146102ab57600080fd5b8063715018a6146102185780638da5cb5b1461022057806395d89b4114610231578063a22cb46514610239578063af30dc1d1461024c57600080fd5b80633962f82d116100f45780633962f82d146101c157806342842e0e146101d75780636352211e146101ea57806368f8b055146101fd57806370a082311461020557600080fd5b806301ffc9a71461013157806306fdde0314610159578063081812fc1461016e578063095ea7b31461019957806323b872dd146101ae575b600080fd5b61014461013f366004610f88565b6102be565b60405190151581526020015b60405180910390f35b6101616102cf565b6040516101509190610ff5565b61018161017c366004611008565b610361565b6040516001600160a01b039091168152602001610150565b6101ac6101a736600461103d565b61038a565b005b6101ac6101bc366004611067565b610399565b6101c9610429565b604051908152602001610150565b6101ac6101e5366004611067565b61043f565b6101816101f8366004611008565b61045f565b61016161046a565b6101c96102133660046110a4565b610479565b6101ac6104c1565b6007546001600160a01b0316610181565b6101616104d5565b6101ac6102473660046110bf565b6104e4565b6101ac61025a3660046111ab565b6104ef565b6101ac61026d3660046111e0565b610503565b610161610280366004611008565b61051b565b6101c961029336600461125c565b610526565b6101446102a63660046112aa565b610565565b6101ac6102b93660046110a4565b610593565b60006102c9826105d1565b92915050565b6060600080546102de906112dd565b80601f016020809104026020016040519081016040528092919081815260200182805461030a906112dd565b80156103575780601f1061032c57610100808354040283529160200191610357565b820191906000526020600020905b81548152906001019060200180831161033a57829003601f168201915b5050505050905090565b600061036c826105f6565b506000828152600460205260409020546001600160a01b03166102c9565b61039582823361062f565b5050565b6001600160a01b0382166103c857604051633250574960e11b8152600060048201526024015b60405180910390fd5b60006103d583833361063c565b9050836001600160a01b0316816001600160a01b031614610423576040516364283d7b60e01b81526001600160a01b03808616600483015260248201849052821660448201526064016103bf565b50505050565b6000600160085461043a919061132d565b905090565b61045a83838360405180602001604052806000815250610503565b505050565b60006102c9826105f6565b6060600980546102de906112dd565b60006001600160a01b0382166104a5576040516322718ad960e21b8152600060048201526024016103bf565b506001600160a01b031660009081526003602052604090205490565b6104c9610735565b6104d36000610762565b565b6060600180546102de906112dd565b6103953383836107b4565b6104f7610735565b60096103958282611387565b61050e848484610399565b6104233385858585610853565b60606102c98261097e565b6000610530610735565b600880549060019060006105448385611446565b9091555061055490508482610a8f565b61055e8184610aa9565b9392505050565b6001600160a01b03918216600090815260056020908152604080832093909416825291909152205460ff1690565b61059b610735565b6001600160a01b0381166105c557604051631e4fbdf760e01b8152600060048201526024016103bf565b6105ce81610762565b50565b60006001600160e01b03198216632483248360e11b14806102c957506102c982610af9565b6000818152600260205260408120546001600160a01b0316806102c957604051637e27328960e01b8152600481018490526024016103bf565b61045a8383836001610b49565b6000828152600260205260408120546001600160a01b039081169083161561066957610669818486610c4f565b6001600160a01b038116156106a757610686600085600080610b49565b6001600160a01b038116600090815260036020526040902080546000190190555b6001600160a01b038516156106d6576001600160a01b0385166000908152600360205260409020805460010190555b60008481526002602052604080822080546001600160a01b0319166001600160a01b0389811691821790925591518793918516917fddf252ad1be2c89b69c2b068fc378daa952ba7f163c4a11628f55a4df523b3ef91a4949350505050565b6007546001600160a01b031633146104d35760405163118cdaa760e01b81523360048201526024016103bf565b600780546001600160a01b038381166001600160a01b0319831681179093556040519116919082907f8be0079c531659141344cd1fd0a4f28419497f9722a3daafe3b4186f6b6457e090600090a35050565b6001600160a01b0382166107e657604051630b61174360e31b81526001600160a01b03831660048201526024016103bf565b6001600160a01b03838116600081815260056020908152604080832094871680845294825291829020805460ff191686151590811790915591519182527f17307eab39ab6107e8899845ad3d59bd9653f200f220920489ca2b5937696c31910160405180910390a3505050565b6001600160a01b0383163b1561097757604051630a85bd0160e11b81526001600160a01b0384169063150b7a0290610895908890889087908790600401611459565b6020604051808303816000875af19250505080156108d0575060408051601f3d908101601f191682019092526108cd91810190611496565b60015b610939573d8080156108fe576040519150601f19603f3d011682016040523d82523d6000602084013e610903565b606091505b50805160000361093157604051633250574960e11b81526001600160a01b03851660048201526024016103bf565b805181602001fd5b6001600160e01b03198116630a85bd0160e11b1461097557604051633250574960e11b81526001600160a01b03851660048201526024016103bf565b505b5050505050565b6060610989826105f6565b50600082815260066020526040812080546109a3906112dd565b80601f01602080910402602001604051908101604052809291908181526020018280546109cf906112dd565b8015610a1c5780601f106109f157610100808354040283529160200191610a1c565b820191906000526020600020905b8154815290600101906020018083116109ff57829003601f168201915b505050505090506000610a3a60408051602081019091526000815290565b90508051600003610a4c575092915050565b815115610a7e578082604051602001610a669291906114b3565b60405160208183030381529060405292505050919050565b610a8784610cb3565b949350505050565b610395828260405180602001604052806000815250610d27565b6000828152600660205260409020610ac18282611387565b506040518281527ff8e1a15aba9398e019f0b49df1a4fde98ee17ae345cb5f6b5e2c27f5033e8ce79060200160405180910390a15050565b60006001600160e01b031982166380ac58cd60e01b1480610b2a57506001600160e01b03198216635b5e139f60e01b145b806102c957506301ffc9a760e01b6001600160e01b03198316146102c9565b8080610b5d57506001600160a01b03821615155b15610c1f576000610b6d846105f6565b90506001600160a01b03831615801590610b995750826001600160a01b0316816001600160a01b031614155b8015610bac5750610baa8184610565565b155b15610bd55760405163a9fbf51f60e01b81526001600160a01b03841660048201526024016103bf565b8115610c1d5783856001600160a01b0316826001600160a01b03167f8c5be1e5ebec7d5bd14f71427d1e84f3dd0314c0f7b2291e5b200ac8c7c3b92560405160405180910390a45b505b5050600090815260046020526040902080546001600160a01b0319166001600160a01b0392909216919091179055565b610c5a838383610d3f565b61045a576001600160a01b038316610c8857604051637e27328960e01b8152600481018290526024016103bf565b60405163177e802f60e01b81526001600160a01b0383166004820152602481018290526044016103bf565b6060610cbe826105f6565b506000610cd660408051602081019091526000815290565b90506000815111610cf6576040518060200160405280600081525061055e565b80610d0084610da2565b604051602001610d119291906114b3565b6040516020818303038152906040529392505050565b610d318383610e35565b61045a336000858585610853565b60006001600160a01b03831615801590610a875750826001600160a01b0316846001600160a01b03161480610d795750610d798484610565565b80610a875750506000908152600460205260409020546001600160a01b03908116911614919050565b60606000610daf83610e9a565b600101905060008167ffffffffffffffff811115610dcf57610dcf6110fb565b6040519080825280601f01601f191660200182016040528015610df9576020820181803683370190505b5090508181016020015b600019016f181899199a1a9b1b9c1cb0b131b232b360811b600a86061a8153600a8504945084610e0357509392505050565b6001600160a01b038216610e5f57604051633250574960e11b8152600060048201526024016103bf565b6000610e6d8383600061063c565b90506001600160a01b0381161561045a576040516339e3563760e11b8152600060048201526024016103bf565b60008072184f03e93ff9f4daa797ed6e38ed64bf6a1f0160401b8310610ed95772184f03e93ff9f4daa797ed6e38ed64bf6a1f0160401b830492506040015b6d04ee2d6d415b85acef81000000008310610f05576d04ee2d6d415b85acef8100000000830492506020015b662386f26fc100008310610f2357662386f26fc10000830492506010015b6305f5e1008310610f3b576305f5e100830492506008015b6127108310610f4f57612710830492506004015b60648310610f61576064830492506002015b600a83106102c95760010192915050565b6001600160e01b0319811681146105ce57600080fd5b600060208284031215610f9a57600080fd5b813561055e81610f72565b60005b83811015610fc0578181015183820152602001610fa8565b50506000910152565b60008151808452610fe1816020860160208601610fa5565b601f01601f19169290920160200192915050565b60208152600061055e6020830184610fc9565b60006020828403121561101a57600080fd5b5035919050565b80356001600160a01b038116811461103857600080fd5b919050565b6000806040838503121561105057600080fd5b61105983611021565b946020939093013593505050565b60008060006060848603121561107c57600080fd5b61108584611021565b925061109360208501611021565b929592945050506040919091013590565b6000602082840312156110b657600080fd5b61055e82611021565b600080604083850312156110d257600080fd5b6110db83611021565b9150602083013580151581146110f057600080fd5b809150509250929050565b634e487b7160e01b600052604160045260246000fd5b60008067ffffffffffffffff84111561112c5761112c6110fb565b50604051601f19601f85018116603f0116810181811067ffffffffffffffff8211171561115b5761115b6110fb565b60405283815290508082840185101561117357600080fd5b83836020830137600060208583010152509392505050565b600082601f83011261119c57600080fd5b61055e83833560208501611111565b6000602082840312156111bd57600080fd5b813567ffffffffffffffff8111156111d457600080fd5b610a878482850161118b565b600080600080608085870312156111f657600080fd5b6111ff85611021565b935061120d60208601611021565b925060408501359150606085013567ffffffffffffffff81111561123057600080fd5b8501601f8101871361124157600080fd5b61125087823560208401611111565b91505092959194509250565b6000806040838503121561126f57600080fd5b61127883611021565b9150602083013567ffffffffffffffff81111561129457600080fd5b6112a08582860161118b565b9150509250929050565b600080604083850312156112bd57600080fd5b6112c683611021565b91506112d460208401611021565b90509250929050565b600181811c908216806112f157607f821691505b60208210810361131157634e487b7160e01b600052602260045260246000fd5b50919050565b634e487b7160e01b600052601160045260246000fd5b818103818111156102c9576102c9611317565b601f82111561045a57806000526020600020601f840160051c810160208510156113675750805b601f840160051c820191505b818110156109775760008155600101611373565b815167ffffffffffffffff8111156113a1576113a16110fb565b6113b5816113af84546112dd565b84611340565b6020601f8211600181146113e957600083156113d15750848201515b600019600385901b1c1916600184901b178455610977565b600084815260208120601f198516915b8281101561141957878501518255602094850194600190920191016113f9565b50848210156114375786840151600019600387901b60f8161c191681555b50505050600190811b01905550565b808201808211156102c9576102c9611317565b6001600160a01b038581168252841660208201526040810183905260806060820181905260009061148c90830184610fc9565b9695505050505050565b6000602082840312156114a857600080fd5b815161055e81610f72565b600083516114c5818460208801610fa5565b8351908301906114d9818360208801610fa5565b0194935050505056fea26469706673582212200ea9c5992119934893d674384ac19fea283db49fc2063e17b4397eea6bfb2be664736f6c634300081c0033a26469706673582212204bbf44e24df0ae9a81a0084606892f673a34aafc646ce2acba9eee7a724014b764736f6c634300081c0033",
  "linkReferences": {},
  "deployedLinkReferences": {}
}