{
  "_format": "hh-sol-artifact-1",
  "contractName": "NFTFactory",
  "sourceName": "contracts/NFTFactory.sol",
  "abi": [
    {
      "anonymous": false,
      "inputs": [
        {
          "indexed": false,
          "internalType": "address",
          "name": "contractAddress",
          "type": "address"
        },
        {
          "indexed": false,
          "internalType": "string",
          "name": "name",
          "type": "string"
        },
        {
          "indexed": false,
          "internalType": "string",
          "name": "symbol",
          "type": "string"
        },
        {
          "indexed": false,
          "internalType": "address",
          "name": "owner",
          "type": "address"
        }
      ],
      "name": "NFTContractCreated",
      "type": "event"
    },
    {
      "inputs": [
        {
          "internalType": "address",
          "name": "",
          "type": "address"
        },
        {
          "internalType": "uint256",
          "name": "",
          "type": "uint256"
        }
      ],
      "name": "contractsByOwner",
      "outputs": [
        {
          "internalType": "address",
          "name": "",
          "type": "address"
        }
      ],
      "stateMutability": "view",
      "type": "function"
    },
    {
      "inputs": [
        {
          "internalType": "string",
          "name": "name",
          "type": "string"
        },
        {
          "internalType": "string",
          "name": "symbol",
          "type": "string"
        },
        {
          "internalType": "string",
          "name": "collectionCID",
          "type": "string"
        }
      ],
      "name": "createNFTContract",
      "outputs": [
        {
          "internalType": "address",
          "name": "",
          "type": "address"
        }
      ],
      "stateMutability": "nonpayable",
      "type": "function"
    },
    {
      "inputs": [
        {
          "internalType": "uint256",
          "name": "",
          "type": "uint256"
        }
      ],
      "name": "deployedContracts",
      "outputs": [
        {
          "internalType": "address",
          "name": "",
          "type": "address"
        }
      ],
      "stateMutability": "view",
      "type": "function"
    },
    {
      "inputs": [
        {
          "internalType": "address",
          "name": "owner",
          "type": "address"
        }
      ],
      "name": "getContractsByOwner",
      "outputs": [
        {
          "internalType": "address[]",
          "name": "",
          "type": "address[]"
        }
      ],
      "stateMutability": "view",
      "type": "function"
    },
    {
      "inputs": [
        {
          "internalType": "address",
          "name": "owner",
          "type": "address"
        }
      ],
      "name": "getContractsCountByOwner",
      "outputs": [
        {
          "internalType": "uint256",
          "name": "",
          "type": "uint256"
        }
      ],
      "stateMutability": "view",
      "type": "function"
    },
    {
      "inputs": [],
      "name": "getDeployedContracts",
      "outputs": [
        {
          "internalType": "address[]",
          "name": "",
          "type": "address[]"
        }
      ],
      "stateMutability": "view",
      "type": "function"
    },
    {
      "inputs": [],
      "name": "getDeployedContractsCount",
      "outputs": [
        {
          "internalType": "uint256",
          "name": "",
          "type": "uint256"
        }
      ],
      "stateMutability": "view",
      "type": "function"
    }
  ],
  "bytecode": "0x6080604052348015600f57600080fd5b50611f4f8061001f6000396000f3fe608060405234801561001057600080fd5b506004361061007d5760003560e01c8063674fba4f1161005b578063674fba4f146100e45780639ad1ee101461010d578063a19d5ac914610120578063aa9a068f1461013357600080fd5b80631271acd3146100825780631cea013a146100b25780635fc7f334146100d2575b600080fd5b610095610090366004610420565b61013b565b6040516001600160a01b0390911681526020015b60405180910390f35b6100c56100c03660046104d0565b610234565b6040516100a991906104f2565b6000545b6040519081526020016100a9565b6100d66100f23660046104d0565b6001600160a01b031660009081526001602052604090205490565b61009561011b36600461053e565b6102aa565b61009561012e366004610557565b6102d4565b6100c561030c565b6000808484338560405161014e9061036e565b61015b94939291906105c7565b604051809103906000f080158015610177573d6000803e3d6000fd5b5060008054600181810183557f290decd9548b62a8d60345a988386fc84ba6bc95484008f6362f93160ef3e56390910180546001600160a01b0385166001600160a01b031991821681179092553380855260208481526040808720805496870181558752952090930180549091169091179055905191925082917f580cfa47423e476ea9ca65ff917aaded66bc9b0257ff4265fad1b510762f09e9916102239184918a918a919061061a565b60405180910390a195945050505050565b6001600160a01b03811660009081526001602090815260409182902080548351818402810184019094528084526060939283018282801561029e57602002820191906000526020600020905b81546001600160a01b03168152600190910190602001808311610280575b50505050509050919050565b600081815481106102ba57600080fd5b6000918252602090912001546001600160a01b0316905081565b600160205281600052604060002081815481106102f057600080fd5b6000918252602090912001546001600160a01b03169150829050565b6060600080548060200260200160405190810160405280929190818152602001828054801561036457602002820191906000526020600020905b81546001600160a01b03168152600190910190602001808311610346575b5050505050905090565b6118af8061066b83390190565b634e487b7160e01b600052604160045260246000fd5b600082601f8301126103a257600080fd5b813567ffffffffffffffff8111156103bc576103bc61037b565b604051601f8201601f19908116603f0116810167ffffffffffffffff811182821017156103eb576103eb61037b565b60405281815283820160200185101561040357600080fd5b816020850160208301376000918101602001919091529392505050565b60008060006060848603121561043557600080fd5b833567ffffffffffffffff81111561044c57600080fd5b61045886828701610391565b935050602084013567ffffffffffffffff81111561047557600080fd5b61048186828701610391565b925050604084013567ffffffffffffffff81111561049e57600080fd5b6104aa86828701610391565b9150509250925092565b80356001600160a01b03811681146104cb57600080fd5b919050565b6000602082840312156104e257600080fd5b6104eb826104b4565b9392505050565b602080825282518282018190526000918401906040840190835b818110156105335783516001600160a01b031683526020938401939092019160010161050c565b509095945050505050565b60006020828403121561055057600080fd5b5035919050565b6000806040838503121561056a57600080fd5b610573836104b4565b946020939093013593505050565b6000815180845260005b818110156105a75760208185018101518683018201520161058b565b506000602082860101526020601f19601f83011685010191505092915050565b6080815260006105da6080830187610581565b82810360208401526105ec8187610581565b6001600160a01b03861660408501528381036060850152905061060f8185610581565b979650505050505050565b6001600160a01b038516815260806020820181905260009061063e90830186610581565b82810360408401526106508186610581565b91505060018060a01b03831660608301529594505050505056fe608060405234801561001057600080fd5b506040516118af3803806118af83398101604081905261002f916101ac565b818484600061003e83826102ea565b50600161004b82826102ea565b5050506001600160a01b03811661007c57604051631e4fbdf760e01b81526000600482015260240160405180910390fd5b610085816100a1565b506001600855600961009782826102ea565b50505050506103a8565b600780546001600160a01b038381166001600160a01b0319831681179093556040519116919082907f8be0079c531659141344cd1fd0a4f28419497f9722a3daafe3b4186f6b6457e090600090a35050565b634e487b7160e01b600052604160045260246000fd5b600082601f83011261011a57600080fd5b81516001600160401b03811115610133576101336100f3565b604051601f8201601f19908116603f011681016001600160401b0381118282101715610161576101616100f3565b60405281815283820160200185101561017957600080fd5b60005b828110156101985760208186018101518383018201520161017c565b506000918101602001919091529392505050565b600080600080608085870312156101c257600080fd5b84516001600160401b038111156101d857600080fd5b6101e487828801610109565b602087015190955090506001600160401b0381111561020257600080fd5b61020e87828801610109565b604087015190945090506001600160a01b038116811461022d57600080fd5b60608601519092506001600160401b0381111561024957600080fd5b61025587828801610109565b91505092959194509250565b600181811c9082168061027557607f821691505b60208210810361029557634e487b7160e01b600052602260045260246000fd5b50919050565b601f8211156102e557806000526020600020601f840160051c810160208510156102c25750805b601f840160051c820191505b818110156102e257600081556001016102ce565b50505b505050565b81516001600160401b03811115610303576103036100f3565b610317816103118454610261565b8461029b565b6020601f82116001811461034b57600083156103335750848201515b600019600385901b1c1916600184901b1784556102e2565b600084815260208120601f198516915b8281101561037b578785015182556020948501946001909201910161035b565b50848210156103995786840151600019600387901b60f8161c191681555b50505050600190811b01905550565b6114f8806103b76000396000f3fe608060405234801561001057600080fd5b506004361061012c5760003560e01c8063715018a6116100ad578063b88d4fde11610071578063b88d4fde1461025f578063c87b56dd14610272578063d0def52114610285578063e985e9c514610298578063f2fde38b146102ab57600080fd5b8063715018a6146102185780638da5cb5b1461022057806395d89b4114610231578063a22cb46514610239578063af30dc1d1461024c57600080fd5b806342842e0e116100f457806342842e0e146101c157806356189236146101d45780636352211e146101ea57806368f8b055146101fd57806370a082311461020557600080fd5b806301ffc9a71461013157806306fdde0314610159578063081812fc1461016e578063095ea7b31461019957806323b872dd146101ae575b600080fd5b61014461013f366004610f83565b6102be565b60405190151581526020015b60405180910390f35b6101616102cf565b6040516101509190610ff0565b61018161017c366004611003565b610361565b6040516001600160a01b039091168152602001610150565b6101ac6101a7366004611038565b61038a565b005b6101ac6101bc366004611062565b610399565b6101ac6101cf366004611062565b610429565b6101dc610449565b604051908152602001610150565b6101816101f8366004611003565b61045a565b610161610465565b6101dc61021336600461109f565b610474565b6101ac6104bc565b6007546001600160a01b0316610181565b6101616104d0565b6101ac6102473660046110ba565b6104df565b6101ac61025a3660046111a6565b6104ea565b6101ac61026d3660046111db565b6104fe565b610161610280366004611003565b610516565b6101dc610293366004611257565b610521565b6101446102a63660046112a5565b610560565b6101ac6102b936600461109f565b61058e565b60006102c9826105cc565b92915050565b6060600080546102de906112d8565b80601f016020809104026020016040519081016040528092919081815260200182805461030a906112d8565b80156103575780601f1061032c57610100808354040283529160200191610357565b820191906000526020600020905b81548152906001019060200180831161033a57829003601f168201915b5050505050905090565b600061036c826105f1565b506000828152600460205260409020546001600160a01b03166102c9565b61039582823361062a565b5050565b6001600160a01b0382166103c857604051633250574960e11b8152600060048201526024015b60405180910390fd5b60006103d5838333610637565b9050836001600160a01b0316816001600160a01b031614610423576040516364283d7b60e01b81526001600160a01b03808616600483015260248201849052821660448201526064016103bf565b50505050565b610444838383604051806020016040528060008152506104fe565b505050565b6000610453610730565b5060085490565b60006102c9826105f1565b6060600980546102de906112d8565b60006001600160a01b0382166104a0576040516322718ad960e21b8152600060048201526024016103bf565b506001600160a01b031660009081526003602052604090205490565b6104c4610730565b6104ce600061075d565b565b6060600180546102de906112d8565b6103953383836107af565b6104f2610730565b60096103958282611359565b610509848484610399565b610423338585858561084e565b60606102c982610979565b600061052b610730565b6008805490600190600061053f8385611418565b9091555061054f90508482610a8a565b6105598184610aa4565b9392505050565b6001600160a01b03918216600090815260056020908152604080832093909416825291909152205460ff1690565b610596610730565b6001600160a01b0381166105c057604051631e4fbdf760e01b8152600060048201526024016103bf565b6105c98161075d565b50565b60006001600160e01b03198216632483248360e11b14806102c957506102c982610af4565b6000818152600260205260408120546001600160a01b0316806102c957604051637e27328960e01b8152600481018490526024016103bf565b6104448383836001610b44565b6000828152600260205260408120546001600160a01b039081169083161561066457610664818486610c4a565b6001600160a01b038116156106a257610681600085600080610b44565b6001600160a01b038116600090815260036020526040902080546000190190555b6001600160a01b038516156106d1576001600160a01b0385166000908152600360205260409020805460010190555b60008481526002602052604080822080546001600160a01b0319166001600160a01b0389811691821790925591518793918516917fddf252ad1be2c89b69c2b068fc378daa952ba7f163c4a11628f55a4df523b3ef91a4949350505050565b6007546001600160a01b031633146104ce5760405163118cdaa760e01b81523360048201526024016103bf565b600780546001600160a01b038381166001600160a01b0319831681179093556040519116919082907f8be0079c531659141344cd1fd0a4f28419497f9722a3daafe3b4186f6b6457e090600090a35050565b6001600160a01b0382166107e157604051630b61174360e31b81526001600160a01b03831660048201526024016103bf565b6001600160a01b03838116600081815260056020908152604080832094871680845294825291829020805460ff191686151590811790915591519182527f17307eab39ab6107e8899845ad3d59bd9653f200f220920489ca2b5937696c31910160405180910390a3505050565b6001600160a01b0383163b1561097257604051630a85bd0160e11b81526001600160a01b0384169063150b7a0290610890908890889087908790600401611439565b6020604051808303816000875af19250505080156108cb575060408051601f3d908101601f191682019092526108c891810190611476565b60015b610934573d8080156108f9576040519150601f19603f3d011682016040523d82523d6000602084013e6108fe565b606091505b50805160000361092c57604051633250574960e11b81526001600160a01b03851660048201526024016103bf565b805181602001fd5b6001600160e01b03198116630a85bd0160e11b1461097057604051633250574960e11b81526001600160a01b03851660048201526024016103bf565b505b5050505050565b6060610984826105f1565b506000828152600660205260408120805461099e906112d8565b80601f01602080910402602001604051908101604052809291908181526020018280546109ca906112d8565b8015610a175780601f106109ec57610100808354040283529160200191610a17565b820191906000526020600020905b8154815290600101906020018083116109fa57829003601f168201915b505050505090506000610a3560408051602081019091526000815290565b90508051600003610a47575092915050565b815115610a79578082604051602001610a61929190611493565b60405160208183030381529060405292505050919050565b610a8284610cae565b949350505050565b610395828260405180602001604052806000815250610d22565b6000828152600660205260409020610abc8282611359565b506040518281527ff8e1a15aba9398e019f0b49df1a4fde98ee17ae345cb5f6b5e2c27f5033e8ce79060200160405180910390a15050565b60006001600160e01b031982166380ac58cd60e01b1480610b2557506001600160e01b03198216635b5e139f60e01b145b806102c957506301ffc9a760e01b6001600160e01b03198316146102c9565b8080610b5857506001600160a01b03821615155b15610c1a576000610b68846105f1565b90506001600160a01b03831615801590610b945750826001600160a01b0316816001600160a01b031614155b8015610ba75750610ba58184610560565b155b15610bd05760405163a9fbf51f60e01b81526001600160a01b03841660048201526024016103bf565b8115610c185783856001600160a01b0316826001600160a01b03167f8c5be1e5ebec7d5bd14f71427d1e84f3dd0314c0f7b2291e5b200ac8c7c3b92560405160405180910390a45b505b5050600090815260046020526040902080546001600160a01b0319166001600160a01b0392909216919091179055565b610c55838383610d3a565b610444576001600160a01b038316610c8357604051637e27328960e01b8152600481018290526024016103bf565b60405163177e802f60e01b81526001600160a01b0383166004820152602481018290526044016103bf565b6060610cb9826105f1565b506000610cd160408051602081019091526000815290565b90506000815111610cf15760405180602001604052806000815250610559565b80610cfb84610d9d565b604051602001610d0c929190611493565b6040516020818303038152906040529392505050565b610d2c8383610e30565b61044433600085858561084e565b60006001600160a01b03831615801590610a825750826001600160a01b0316846001600160a01b03161480610d745750610d748484610560565b80610a825750506000908152600460205260409020546001600160a01b03908116911614919050565b60606000610daa83610e95565b600101905060008167ffffffffffffffff811115610dca57610dca6110f6565b6040519080825280601f01601f191660200182016040528015610df4576020820181803683370190505b5090508181016020015b600019016f181899199a1a9b1b9c1cb0b131b232b360811b600a86061a8153600a8504945084610dfe57509392505050565b6001600160a01b038216610e5a57604051633250574960e11b8152600060048201526024016103bf565b6000610e6883836000610637565b90506001600160a01b03811615610444576040516339e3563760e11b8152600060048201526024016103bf565b60008072184f03e93ff9f4daa797ed6e38ed64bf6a1f0160401b8310610ed45772184f03e93ff9f4daa797ed6e38ed64bf6a1f0160401b830492506040015b6d04ee2d6d415b85acef81000000008310610f00576d04ee2d6d415b85acef8100000000830492506020015b662386f26fc100008310610f1e57662386f26fc10000830492506010015b6305f5e1008310610f36576305f5e100830492506008015b6127108310610f4a57612710830492506004015b60648310610f5c576064830492506002015b600a83106102c95760010192915050565b6001600160e01b0319811681146105c957600080fd5b600060208284031215610f9557600080fd5b813561055981610f6d565b60005b83811015610fbb578181015183820152602001610fa3565b50506000910152565b60008151808452610fdc816020860160208601610fa0565b601f01601f19169290920160200192915050565b6020815260006105596020830184610fc4565b60006020828403121561101557600080fd5b5035919050565b80356001600160a01b038116811461103357600080fd5b919050565b6000806040838503121561104b57600080fd5b6110548361101c565b946020939093013593505050565b60008060006060848603121561107757600080fd5b6110808461101c565b925061108e6020850161101c565b929592945050506040919091013590565b6000602082840312156110b157600080fd5b6105598261101c565b600080604083850312156110cd57600080fd5b6110d68361101c565b9150602083013580151581146110eb57600080fd5b809150509250929050565b634e487b7160e01b600052604160045260246000fd5b60008067ffffffffffffffff841115611127576111276110f6565b50604051601f19601f85018116603f0116810181811067ffffffffffffffff82111715611156576111566110f6565b60405283815290508082840185101561116e57600080fd5b83836020830137600060208583010152509392505050565b600082601f83011261119757600080fd5b6105598383356020850161110c565b6000602082840312156111b857600080fd5b813567ffffffffffffffff8111156111cf57600080fd5b610a8284828501611186565b600080600080608085870312156111f157600080fd5b6111fa8561101c565b93506112086020860161101c565b925060408501359150606085013567ffffffffffffffff81111561122b57600080fd5b8501601f8101871361123c57600080fd5b61124b8782356020840161110c565b91505092959194509250565b6000806040838503121561126a57600080fd5b6112738361101c565b9150602083013567ffffffffffffffff81111561128f57600080fd5b61129b85828601611186565b9150509250929050565b600080604083850312156112b857600080fd5b6112c18361101c565b91506112cf6020840161101c565b90509250929050565b600181811c908216806112ec57607f821691505b60208210810361130c57634e487b7160e01b600052602260045260246000fd5b50919050565b601f82111561044457806000526020600020601f840160051c810160208510156113395750805b601f840160051c820191505b818110156109725760008155600101611345565b815167ffffffffffffffff811115611373576113736110f6565b6113878161138184546112d8565b84611312565b6020601f8211600181146113bb57600083156113a35750848201515b600019600385901b1c1916600184901b178455610972565b600084815260208120601f198516915b828110156113eb57878501518255602094850194600190920191016113cb565b50848210156114095786840151600019600387901b60f8161c191681555b50505050600190811b01905550565b808201808211156102c957634e487b7160e01b600052601160045260246000fd5b6001600160a01b038581168252841660208201526040810183905260806060820181905260009061146c90830184610fc4565b9695505050505050565b60006020828403121561148857600080fd5b815161055981610f6d565b600083516114a5818460208801610fa0565b8351908301906114b9818360208801610fa0565b0194935050505056fea2646970667358221220e5f9f867ea3f13de929baab61c36122cb3ceeb4793ebc74d75a7468fe93f75cd64736f6c634300081c0033a2646970667358221220d3e183fcef921bced53d9bf8f55123626f2bc28fc3ffd42d6d145274f8a5424764736f6c634300081c0033",
  "linkReferences": {},
  "deployedLinkReferences": {}
}